:100000000C945D000C9485000C9485000C94850084
:100010000C9485000C9485000C9485000C9485004C
:100020000C9485000C9485000C9485000C9485003C
:100030000C9485000C9485000C9485000C9485002C
:100040000C9428030C9485000C9498030C94720370
:100050000C9485000C9485000C9485000C9485000C
:100060000C9485000C9485000000000023002600FD
:10007000290000000000250028002B0004040404CF
:100080000404040402020202020203030303030342
:10009000010204081020408001020408102001021F
:1000A00004081020000000080002010000030407FB
:1000B0000000000000000000F20411241FBECFEF7A
:1000C000D8E0DEBFCDBF11E0A0E0B1E0EAE0FFE0A4
:1000D00002C005900D92A834B107D9F721E0A8E439
:1000E000B1E001C01D92AE3EB207E1F710E0CDE5F0
:1000F000D0E004C02197FE010E944105CC35D10714
:10010000C9F70E94CA030C9483070C940000833043
:1001100081F028F4813099F08230A9F00895873079
:10012000A9F08830C9F08430B1F4809180008F7DCF
:1001300003C0809180008F7780938000089584B5FC
:100140008F7784BD089584B58F7DFBCF8091B000FB
:100150008F778093B00008958091B0008F7DF9CFA4
:100160001F93CF93DF93E6EAF0E09491E2E9F0E0A9
:10017000D491EEE7F0E0C491CC23B9F0182F992385
:1001800019F0892F0E948700EC2FF0E0EE0FFF1F7F
:10019000EE58FF4FA591B4918FB7F894EC911111DF
:1001A00008C0D095DE23DC938FBFDF91CF911F91E4
:1001B0000895DE2BF8CF3FB7F89480914D019091D0
:1001C0004E01A0914F01B091500126B5A89B05C0EA
:1001D0002F3F19F00196A11DB11D3FBFBA2FA92FC6
:1001E000982F8827BC01CD01620F711D811D911DC3
:1001F00042E0660F771F881F991F4A95D1F708952F
:10020000AF92BF92CF92DF92EF92FF920F931F9324
:10021000CF93DF936C017B018B01040F151FEB0162
:100220005E01AE18BF08C017D10759F06991D60119
:10023000ED91FC910190F081E02DC6010995892B8B
:1002400079F7C501DF91CF911F910F91FF90EF904A
:10025000DF90CF90BF90AF900895FC01538D448DF7
:10026000252F30E0842F90E0821B930B541710F061
:10027000CF96089501970895FC01918D828D98176E
:1002800061F0A28DAE0FBF2FB11D5D968C91928D46
:100290009F5F9F73928F90E008958FEF9FEF089577
:1002A000FC01918D828D981731F0828DE80FF11D40
:1002B000858D90E008958FEF9FEF0895FC01918D5B
:1002C000228D892F90E0805C9F4F821B91098F7354
:1002D0009927089581E591E00E945E0121E0892B34
:1002E00009F420E0822F089580E090E0892B29F026
:1002F0000E946A0181110C9400000895FC01A48DF4
:10030000A80FB92FB11DA35ABF4F2C91848D90E037
:1003100001968F739927848FA689B7892C93A0891A
:10032000B1898C91837080648C93938D848D9813A4
:1003300006C00288F389E02D80818F7D8083089537
:10034000EF92FF920F931F93CF93DF93EC0181E025
:10035000888F9B8D8C8D98131AC0E889F9898081CC
:1003600085FF15C09FB7F894EE89FF896083E889FF
:10037000F98980818370806480839FBF81E090E0F1
:10038000DF91CF911F910F91FF90EF900895F62E7E
:100390000B8D10E00F5F1F4F0F731127E02E8C8D18
:1003A0008E110CC00FB607FCFACFE889F98980815D
:1003B00085FFF5CFCE010E947E01F1CFEB8DEC0FD2
:1003C000FD2FF11DE35AFF4FF0829FB7F8940B8F7A
:1003D000EA89FB8980818062CFCFCF93DF93EC01E4
:1003E000888D8823B9F0AA89BB89E889F9898C911D
:1003F00085FD03C0808186FD0DC00FB607FCF7CFD9
:100400008C9185FFF2CF808185FFEDCFCE010E94D8
:100410007E01E9CFDF91CF910895FC01019000208A
:10042000E9F73197AF01481B590BBC0181E591E019
:100430000C9400018F929F92AF92BF920F931F93E3
:10044000CF93DF93CDB7DEB7A1970FB6F894DEBF99
:100450000FBECDBF19A2423008F44AE08E010F5DF5
:100460001F4F842E912CB12CA12CA50194010E9428
:100470001F05E62FB901CA01EA30F4F4E05DD801A6
:10048000EE938D01232B242B252B79F790E080E030
:10049000109719F0CD010E940D02A1960FB6F894A5
:1004A000DEBF0FBECDBFDF91CF911F910F91BF90E7
:1004B000AF909F908F900895E95CE1CF4F925F924B
:1004C0006F927F928F929F92AF92BF92CF92DF9264
:1004D000EF92FF926B017C01AC019B010E947E07B1
:1004E0008823C1F082E191E00E940D027C018EE13F
:1004F00091E00E940D028E0D9F1DFF90EF90DF9006
:10050000CF90BF90AF909F908F907F906F905F90B3
:100510004F90089546015701E894B7F82FEF3FEF49
:100520004FE75FE7C501B4010E947E0781110DC04E
:100530002FEF3FEF4FE75FE7C501B4010E94B4051D
:1005400018161CF486E191E0CFCF2FEF3FEF4FE775
:100550005FE4C701B6010E940C0718161CF48AE17B
:1005600091E0C2CF2FEF3FEF4FE75FECC701B6013D
:100570000E94B40587FDF3CF20E030E0A901C70158
:10058000B6010E94B405B12CA12C87FF0AC06DE210
:1005900081E591E00E94A0015C01F7FAF094F7F880
:1005A000F0942AE037ED43EA5BE3C701B6010E940D
:1005B00048052B013C010E942B066B017C010E9427
:1005C0005A069B01AC01C301B2010E9447052B01F1
:1005D0003C014AE0C701B6010E941A027C01EA0C04
:1005E000FB1C6EE281E591E00E94A001E80EF91E7D
:1005F00020E030E040E251E4C301B2010E94110763
:100600002B013C010E942B064B01B12CA12C4AE08E
:10061000C501B4010E941A02E80EF91EC501B40119
:100620000E945A069B01AC01C301B2010E9447051A
:1006300020E030E040E251E40E9411070E942B06C6
:1006400090E080E04AE00E941A02E80EF91E4FCFC7
:100650001F920F920FB60F9211242F933F938F93F7
:100660009F93AF93BF938091490190914A01A091CC
:100670004B01B0914C013091480123E0230F2D37FD
:1006800058F50196A11DB11D2093480180934901A1
:1006900090934A01A0934B01B0934C0180914D017E
:1006A00090914E01A0914F01B09150010196A11D72
:1006B000B11D80934D0190934E01A0934F01B093D3
:1006C0005001BF91AF919F918F913F912F910F90CA
:1006D0000FBE0F901F90189526E8230F0296A11DBC
:1006E000B11DD2CF1F920F920FB60F9211242F93EC
:1006F0003F934F935F936F937F938F939F93AF93AA
:10070000BF93EF93FF9381E591E00E947E01FF91FB
:10071000EF91BF91AF919F918F917F916F915F9179
:100720004F913F912F910F900FBE0F901F901895F2
:100730001F920F920FB60F9211242F938F939F93B6
:10074000EF93FF93E0916101F09162018081E0916C
:100750006701F091680182FD1BC0908180916A0160
:100760008F5F8F7320916B01821741F0E0916A01D6
:10077000F0E0EF5AFE4F958F80936A01FF91EF9161
:100780009F918F912F910F900FBE0F901F901895F2
:100790008081F4CF789484B5826084BD84B5816013
:1007A00084BD85B5826085BD85B5816085BD80913C
:1007B0006E00816080936E001092810080918100B4
:1007C00082608093810080918100816080938100AC
:1007D000809180008160809380008091B10084606E
:1007E0008093B1008091B00081608093B0008091CF
:1007F0007A00846080937A0080917A00826080938E
:100800007A0080917A00816080937A0080917A00EA
:10081000806880937A001092C100E0916101F091AC
:10082000620182E08083E0915D01F0915E011082BF
:10083000E0915F01F09160018FEC8083109269017B
:10084000E0916501F091660186E08083E0916301AB
:10085000F0916401808180618083E0916301F09177
:100860006401808188608083E0916301F09164017C
:10087000808180688083E0916301F09164018081D0
:100880008F7D808320E4322E3CEA832E30E0932E4D
:10089000C8E9D0E004E810E040E0A42E40E0B42E27
:1008A00030927C0080917A00806480937A008091FD
:1008B0007A0086FDFCCF8091780060917900762FD8
:1008C000682F072E000C880B990B0E945C0620E015
:1008D00030E040E85AE30E94110720E030E040EAAF
:1008E00050E40E9411076B017C01AC019B0160E0A8
:1008F00070E080EA90E40E944705A70196010E94FB
:10090000B9052B013C0181E291E00E940D02C70173
:10091000B6010E945E0280E391E00E940D02C301D5
:10092000B2010E945E028CE391E00E940D0223EC72
:1009300035EF48E65FE3C301B2010E94B9050E94AA
:100940005E0285E491E00E940D02F4018491FE01B3
:10095000F490F801E490EE2009F442C081110E9465
:100960008700EE2DF0E0EE0FFF1FE859FF4FA59135
:10097000B4918C91F822A1F181E00E94B0000E9414
:10098000DB002B013C018CEDC82E85E0D82EE12C3C
:10099000F12C0E94DB006419750986099709683EED
:1009A000734081059105A8F3F1E0CF1AD108E10861
:1009B000F10828EE420E23E0521E611C711CC11486
:1009C000D104E104F10429F7A114B10409F468CFBA
:1009D0000E946A01882309F463CF0E94000060CF5F
:1009E00080E0CBCFE1E5F1E01382128288EE93E064
:1009F000A0E0B0E084839583A683B78384E091E090
:100A00009183808385EC90E09587848784EC90E0E7
:100A10009787868780EC90E0918B808B81EC90E0CB
:100A2000938B828B82EC90E0958B848B86EC90E0AC
:100A3000978B868B118E128E138E148E0895A1E2E1
:100A40001A2EAA1BBB1BFD010DC0AA1FBB1FEE1F48
:100A5000FF1FA217B307E407F50720F0A21BB30B93
:100A6000E40BF50B661F771F881F991F1A9469F70F
:100A700060957095809590959B01AC01BD01CF016B
:100A80000895EE0FFF1F0590F491E02D0994505842
:100A9000BB27AA270E945F050C94D2060E94C406B9
:100AA00038F00E94CB0620F039F49F3F19F426F469
:100AB0000C94C1060EF4E095E7FB0C94BB06E92FFD
:100AC0000E94E30658F3BA17620773078407950775
:100AD00020F079F4A6F50C9405070EF4E0950B2EA2
:100AE000BA2FA02D0B01B90190010C01CA01A00180
:100AF0001124FF27591B99F0593F50F4503E68F1DB
:100B00001A16F040A22F232F342F4427585FF3CF1B
:100B1000469537952795A795F0405395C9F77EF4EC
:100B20001F16BA0B620B730B840BBAF09150A1F035
:100B3000FF0FBB1F661F771F881FC2F70EC0BA0FBB
:100B4000621F731F841F48F4879577956795B79543
:100B5000F7959E3F08F0B0CF9395880F08F099273E
:100B6000EE0F9795879508950E94970608F481E007
:100B700008950E94CD050C94D2060E94CB0658F031
:100B80000E94C40640F029F45F3F29F00C94BB0694
:100B900051110C9406070C94C1060E94E30668F3F9
:100BA0009923B1F3552391F3951B550BBB27AA2726
:100BB00062177307840738F09F5F5F4F220F331F60
:100BC000441FAA1FA9F335D00E2E3AF0E0E832D028
:100BD00091505040E695001CCAF72BD0FE2F29D02B
:100BE000660F771F881FBB1F261737074807AB07FD
:100BF000B0E809F0BB0B802DBF01FF2793585F4F72
:100C00003AF09E3F510578F00C94BB060C94060711
:100C10005F3FE4F3983ED4F3869577956795B79553
:100C2000F7959F5FC9F7880F911D9695879597F95E
:100C30000895E1E0660F771F881FBB1F62177307D7
:100C40008407BA0720F0621B730B840BBA0BEE1FEC
:100C500088F7E09508950E94EB0688F09F5798F07A
:100C6000B92F9927B751B0F0E1F0660F771F881FB1
:100C7000991F1AF0BA95C9F714C0B13091F00E94CB
:100C80000507B1E008950C940507672F782F882792
:100C9000B85F39F0B93FCCF3869577956795B395F2
:100CA000D9F73EF490958095709561957F4F8F4F61
:100CB0009F4F0895E89409C097FB3EF49095809566
:100CC000709561957F4F8F4F9F4F9923A9F0F92F12
:100CD00096E9BB279395F695879577956795B79590
:100CE000F111F8CFFAF4BB0F11F460FF1BC06F5F76
:100CF0007F4F8F4F9F4F16C0882311F096E911C088
:100D0000772321F09EE8872F762F05C0662371F0A8
:100D100096E8862F70E060E02AF09A95660F771FBC
:100D2000881FDAF7880F9695879597F90895990F98
:100D30000008550FAA0BE0E8FEEF16161706E807A5
:100D4000F907C0F012161306E407F50798F0621BC6
:100D5000730B840B950B39F40A2661F0232B242B9B
:100D6000252B21F408950A2609F4A140A6958FEFBA
:100D7000811D811D089597F99F6780E870E060E00C
:100D800008959FEF80EC089500240A941616170624
:100D900018060906089500240A941216130614066C
:100DA00005060895092E0394000C11F4882352F0CF
:100DB000BB0F40F4BF2B11F460FF04C06F5F7F4F87
:100DC0008F4F9F4F089557FD9058440F551F59F06E
:100DD0005F3F71F04795880F97FB991F61F09F3F28
:100DE00079F087950895121613061406551FF2CF51
:100DF0004695F1DF08C0161617061806991FF1CFA1
:100E000086957105610508940895E894BB276627C7
:100E10007727CB0197F908950E94970608F48FEF82
:100E200008950E9424070C94D2060E94C40638F04C
:100E30000E94CB0620F0952311F00C94BB060C9475
:100E4000C10611240C9406070E94E30670F3959FD7
:100E5000C1F3950F50E0551F629FF001729FBB27B1
:100E6000F00DB11D639FAA27F00DB11DAA1F649F4D
:100E70006627B00DA11D661F829F2227B00DA11D00
:100E8000621F739FB00DA11D621F839FA00D611D86
:100E9000221F749F3327A00D611D231F849F600DA7
:100EA000211D822F762F6A2F11249F5750409AF0D0
:100EB000F1F088234AF0EE0FFF1FBB1F661F771F5C
:100EC000881F91505040A9F79E3F510580F00C9427
:100ED000BB060C9406075F3FE4F3983ED4F3869577
:100EE00077956795B795F795E7959F5FC1F7FE2BC7
:100EF000880F911D9695879597F908950E949706FA
:0A0F0000880B990B0895F894FFCFB9
:100F0A0000000000A00100012D01ED015E013C017D
:100F1A0050016E616E00696E66006F7666000D0A9A
:100F2A000073656E736F725F766F6C74203D20007C
:100F3A0052535F726174696F203D200052732F52C1
:080F4A0030203D20000A0A00DE
:00000001FF
